:1000000045C0000060C000005EC000005CC0000091
:100010005AC0000058C0000056C0000054C0000084
:1000200052C0000050C000004EC000004CC0000094
:100030004AC0000001C1000046C0000044C00000EA
:1000400042C0000040C000003EC000003CC00000B4
:100050003AC0000038C0000036C0000034C00000C4
:1000600032C0000030C000002EC000002CC00000D4
:100070002AC0000028C0000026C0000024C00000E4
:1000800022C0000020C000001EC0000011241FBEBE
:10009000CFEFD0E4DEBFCDBF11E0A0E0B1E0EAE1F8
:1000A000F3E000E00BBF02C007900D92AA34B10745
:1000B000D9F721E0AAE4B1E001C01D92A236B2074F
:1000C000E1F7F6D028C19CCF181619065CF0089508
:1000D000000021503109E1F74F5F5F4F841795070A
:1000E00019F4089540E050E027E033E0F1CF5E9846
:1000F00088B95F9A00005F9882E090E0E5CF0895AC
:1001000081E0F5CF0895813118F48158F0CF08953A
:100110008155EDCF089584E690E0D6DF88E3E7DFF0
:1001200086E0E5DF8FE0E3DF81E0E1DF8AE090E079
:10013000CBCF08955E9A88B95F9A00005F9881E0FE
:1001400090E0C2CF08950F931F93CF93DF93182FA2
:10015000EB01D6DF8881882351F001E0010F812F68
:10016000D2DF8991E7DF102F88818111F6CFDF91EF
:10017000CF911F910F910895CF93DF93EC014091A0
:100180004F0150915001DA01A050BF4FE1E5F1E07D
:1001900021E631E08D918193E217F307D9F74F5FA4
:1001A0005F4F5093500140934F0161E571E080E053
:1001B000CADF80914F0190915001C69721F41092AF
:1001C000500110924F01CE01DF91CF9108956093BD
:1001D00046017093470180934801909349016093D1
:1001E0004A0170934B0180934C0190934D01089507
:1001F0008BE0809381008DE790E09093890080935D
:10020000880082E080936F00109285001092840035
:100210008091460190914701A0914801B091490118
:1002200080934A0190934B01A0934C01B0934D01F0
:100230008FB780688FBF08951F920F920FB60F92ED
:1002400011248F939F93AF93BF9380914A01909114
:100250004B01A0914C01B0914D010197A109B10949
:1002600080934A0190934B01A0934C01B0934D01B0
:10027000892B8A2B8B2B99F481E080934E018091FE
:10028000460190914701A0914801B09149018093A6
:100290004A0190934B01A0934C01B0934D01BF9143
:1002A000AF919F918F910F900FBE0F901F90189557
:1002B0001092610111B88FEF82B984B915B887B96E
:1002C00018B88AB91BB81092500110924F0161E022
:1002D00070E080E090E07BDF8BDF1DDF40E050E0EE
:1002E000BA012FEF3FEF06C0C90146DF9C0140E095
:1002F00050E0BA014F5F5F4F6F4F7F4F90914E01BB
:100300009923E1F310924E01443F81E058076105C3
:0A031000710580F3E9CFF894FFCFE8
:10031A0020202020202020202020202020202020D3
:10032A00435331323042206973204C6567656E64ED
:10033A002E2E2E207761697420666F7220697420D0
:10034A004441525921000000000000000000000052
:0A035A000000000000000100000098
:00000001FF
