:1000000045C0000060C000005EC000005CC0000091
:100010005AC0000058C0000056C0000054C0000084
:1000200052C0000050C000004EC000004CC0000094
:100030004AC00000BDC0000046C0000044C000002F
:1000400042C0000040C000003EC000003CC00000B4
:100050003AC0000038C0000036C0000034C00000C4
:1000600032C0000030C000002EC000002CC00000D4
:100070002AC0000028C0000026C0000024C00000E4
:1000800022C0000020C000001EC0000011241FBEBE
:10009000CFEFD0E4DEBFCDBF11E0A0E0B1E0E0E003
:1000A000F3E000E00BBF02C007900D92A430B1074F
:1000B000D9F721E0A4E0B1E001C01D92A930B20758
:1000C000E1F700D11BC19CCF181619065CF008950A
:1000D000000021503109E1F74F5F5F4F841795070A
:1000E00019F4089540E050E027E033E0F1CF5E9846
:1000F00088B95F9A00005F9882E090E0E5CF0895AC
:1001000081E0F5CF0895813118F48158F0CF08953A
:100110008155EDCF089584E690E0D6DF88E3E7DFF0
:1001200086E0E5DF8FE0E3DF81E0E1DF8AE090E079
:10013000CBCF08955E9A88B95F9A00005F9881E0FE
:1001400090E0C2CF08956093000170930101809305
:100150000201909303016093040170930501809361
:1001600006019093070108958BE0809381008DE74D
:1001700090E0909389008093880082E080936F00E4
:1001800010928500109284008091000190910101ED
:10019000A0910201B09103018093040190930501A5
:1001A000A0930601B09307018FB780688FBF0895B1
:1001B0001F920F920FB60F9211248F939F93AF93BC
:1001C000BF938091040190910501A0910601B09127
:1001D00007010197A109B1098093040190930501DA
:1001E000A0930601B0930701892B8A2B8B2B99F4DE
:1001F00081E0809308018091000190910101A0911C
:100200000201B09103018093040190930501A09332
:100210000601B0930701BF91AF919F918F910F900D
:100220000FBE0F901F9018958FEE82B90000009BB3
:1002300029C0019B29C0029B29C0039B29C08FEDC7
:1002400082B90000009B26C0019B26C0029B26C0ED
:10025000039B26C08FEB82B90000009B23C0019B4B
:1002600023C0029B23C0039B23C08FE782B90000F9
:10027000009B20C0019B20C0029B20C0039B20C08C
:1002800080E0089581E3089584E3089587E3089565
:100290008AE2089582E3089585E3089588E3089546
:1002A00080E3089583E3089586E3089589E308953C
:1002B00083E2089581E4089582E4089583E4089533
:1002C00084E4089580EF81B98FE082B98FEF87B918
:1002D00018B88AB91BB868EE73E080E090E033DFAD
:1002E00043DF19DF81E00FDF9FDF24DF809108010A
:1002F0008823E1F31092080103DFF4CFF894FFCFD5
:0403000001000000F8
:00000001FF
