:100000008AC00000A5C00000A3C00000A1C000007D
:100010009FC000009DC000009BC0000099C0000070
:1000200097C0000095C0000093C0000091C0000080
:100030008FC00000F6C000008BC0000089C0000027
:1000400087C0000085C0000083C0000081C00000A0
:100050007FC000007DC000007BC0000079C00000B0
:1000600077C0000075C0000073C0000071C00000C0
:100070006FC000006DC000006BC0000069C00000D0
:1000800067C0000065C0000063C00000DF0105021A
:100090000502050205020502050205020502050228
:1000A0000502050205020502050205020502050218
:1000B0000502050205020502050205020502050208
:1000C00005020502050205020502050205020502F8
:1000D00005020302050205020502050205020502EA
:1000E000FF01050205020502050205020102E20107
:1000F000E501E801EB01ED01EF01F101F301F5018B
:100100000502050205020502050205020502F701C6
:10011000F901FB01FD0111241FBECFEFD0E4DEBFCA
:10012000CDBF11E0A0E0B1E0E0E3F4E000E00BBF00
:1001300002C007900D92A430B107D9F721E0A4E0E6
:10014000B1E001C01D92A930B207E1F7F8D06EC14D
:1001500057CF181619065CF0089500002150310998
:10016000E1F74F5F5F4F8417950719F4089540E05A
:1001700050E027E033E0F1CF5E9888B95F9A000045
:100180005F9882E090E0E5CF0895813118F48158BE
:10019000F3CF08958155F0CF089584E690E0D9DF3C
:1001A00088E3EADF86E0E8DF8FE0E6DF81E0E4DF96
:1001B0008AE090E0CECF0895609300017093010132
:1001C00080930201909303016093040170930501F1
:1001D000809306019093070108958BE0809381003E
:1001E0008DE790E0909389008093880082E080936F
:1001F0006F00109285001092840080910001909110
:100200000101A0910201B091030180930401909338
:100210000501A0930601B09307018FB780688FBFD7
:1002200008951F920F920FB60F9211248F939F93F0
:10023000AF93BF938091040190910501A0910601B5
:10024000B09107010197A109B1098093040190932E
:100250000501A0930601B0930701892B8A2B8B2BF4
:1002600099F481E08093080180910001909101014F
:10027000A0910201B09103018093040190930501C4
:10028000A0930601B0930701BF91AF919F918F9109
:100290000F900FBE0F901F9018958FE082B981E0EC
:1002A00074DF8FEE82B90000009B29C0019B29C03A
:1002B000029B29C0039B29C08FEB82B90000009BE1
:1002C00026C0019B26C0029B26C0039B26C08FED43
:1002D00082B90000009B23C0019B23C0029B23C066
:1002E000039B23C08FE782B90000009B20C0019BC5
:1002F00020C0029B20C0039B20C080E0089581E3C2
:10030000089584E3089587E308958AE2089583E3D6
:10031000089586E3089589E3089583E2089582E3CA
:10032000089585E3089588E3089580E3089581E4BE
:10033000089582E4089583E4089584E4089580EFA5
:1003400081B98FE082B98FEF87B918B88AB91BB825
:1003500064E670E080E090E02FDF3FDF1EDF0F2ECD
:10036000FBE17F2EF02D0F2EFFE08F2EF02D0F2EB4
:10037000FEE09F2EF02D0F2EFDE0AF2EF02D0F2E64
:10038000FCE0BF2EF02D0F2EFBE0CF2EF02D0F2E18
:10039000FAE0DF2EF02D0F2EF9E0EF2EF02D68940D
:1003A000FF24F3F807E016E0D5E0C4E076DF90E044
:1003B0008534910550F5FC01EA5BFF4F2EC08FE1BB
:1003C00085B924C081E085B921C082E085B91EC00D
:1003D00083E085B91BC0C5B919C0D5B917C015B917
:1003E00015C005B913C0F5B811C0E5B80FC0D5B830
:1003F0000DC0C5B80BC0B5B809C0A5B807C095B841
:1004000005C015B803C085B801C075B88091080152
:100410008823E1F310920801C9CFEE0FFF1F0024DB
:10042000001C0BBE0790F691E02D0994F894FFCFC5
:0404300001000000C7
:00000001FF
