:1000000045C0000060C000005EC000005CC0000091
:100010005AC0000058C0000056C0000054C0000084
:1000200052C0000050C000004EC000004CC0000094
:100030004AC0000094C1000046C0000044C0000057
:1000400042C0000040C000003EC000003CC00000B4
:100050003AC0000038C0000036C0000034C00000C4
:1000600032C0000030C000002EC000002CC00000D4
:100070002AC0000028C0000026C0000024C00000E4
:1000800022C0000020C000001EC0000011241FBEBE
:10009000CFEFD0E4DEBFCDBF11E0A0E0B1E0EEEBEA
:1000A000FAE000E00BBF02C007900D92A035B10747
:1000B000D9F721E0A0E5B1E001C01D92AC39B2074B
:1000C000E1F7D2D3FAC49CCFE0917D01E03108F092
:1000D00099C08230910509F46AC034F4009779F030
:1000E000019709F45AC081C08430910509F46FC0AA
:1000F0000CF464C08530910509F470C076C020B15D
:10010000207F203749F480918B01880F8160809394
:100110008B0181E090E06BC020B1207F203B41F457
:1001200080918B01880F80938B0182E090E05FC00B
:1001300020B1207F203DA9F480918B01811106C060
:10014000AE2FB0E0AD5CBE4F80E28C9310928B017D
:10015000EB3008F055C0EF5FE0937D0183E090E065
:10016000089520B1207F203E51F481E090919001CC
:10017000911180E08093900184E090E038C020B13C
:10018000287F203FA1F581E090918D01911180E0C1
:1001900080938D0185E090E02AC080B1807F31E0BE
:1001A00020E0803709F030E0832F922F20C020B16B
:1001B000207F203BE1F080E090E019C020B1207F5B
:1001C000203DA9F010928B0180E090E0089520B1CD
:1001D000207F203E61F080E090E009C020B1287FC0
:1001E000203F29F080E090E002C080E090E0209184
:1001F0008B01222339F0F0E0ED5CFE4F208308955F
:1002000083E090E00895BC0180918F01813011F46A
:100210001092930180918C01813011F4109297011A
:1002200090917C00903419F09134B9F02BC0EAE73A
:10023000F0E0808180648083908194FFFDCFE8E7C7
:10024000F0E08081918190939201809391011182DD
:10025000108281E480937C0015C0EAE7F0E08081A1
:1002600080648083908194FFFDCFE8E7F0E0808197
:10027000918190938401809383011182108280E4A4
:1002800080937C002091910130919201253383E08D
:1002900038071CF081E080939301203481E0380717
:1002A0001CF481E080939701409183015091840177
:1002B000453383E058071CF081E080939601403479
:1002C00081E058071CF481E080939801445A514022
:1002D000493C510520F41092960110929801245A3D
:1002E0003140293C310520F410929701109293017E
:1002F000CB010895609344017093450180934601BA
:100300009093470160937E0170937F0180938001F9
:100310009093810108958BE0809381008DE790E0B8
:10032000909389008093880082E080936F00109200
:100330008500109284008091440190914501A09124
:100340004601B091470180937E0190937F01A09375
:100350008001B09381018FB780688FBF08951F928D
:100360000F920FB60F9211248F939F93AF93BF9369
:1003700080917E0190917F01A0918001B0918101D7
:100380000197A109B10980937E0190937F01A09309
:100390008001B0938101892B8A2B8B2B99F481E00A
:1003A000809382018091440190914501A091460182
:1003B000B091470180937E0190937F01A0938001CB
:1003C000B0938101BF91AF919F918F910F900FBE1C
:1003D0000F901F901895181619065CF008950000EC
:1003E00021503109E1F74F5F5F4F8417950719F4EA
:1003F000089540E050E027E033E0F1CF2E9888B92F
:100400002F9A00002F9882E090E0E5CF0895813187
:1004100018F48158F3CF08958155F0CF089584E6FC
:1004200090E0D9DF88E3EADF86E0E8DF8FE0E6DF0F
:1004300081E0E4DF8AE090E0CECF08952E9A88B97B
:100440002F9A00002F9881E090E0C5CF08951F9368
:10045000CF93DF93FB019081992351F0EB0111E0E1
:10046000180FD5DF8991EADF812F98819111F7CF9D
:10047000DF91CF911F910895CF93DF93EC018230EC
:10048000910509F4AAC034F4009761F0019709F4CA
:1004900098C0DFC08330910509F4ABC0049709F41C
:1004A000C0C0D7C063E371E081E0D1DF62E271E0F8
:1004B00081E1CDDF80919601813089F480918801BE
:1004C00081110DC010928B0110927D0181E080930B
:1004D000880180919801813009F0D1C008C08091D5
:1004E0009801813059F480918801813039F410925B
:1004F0008B0180E180937D011092880180919301AE
:10050000813009F0C2C090917D019B3060F4209150
:100510008801213041F410928B019F5F90937D01FF
:1005200091E090938F0190919701913009F097C0DD
:1005300020917D01222309F49CC030918801313043
:1005400009F08AC010928B01215020937D0121E097
:1005500020938C0181C020918801211106C08F5FFA
:1005600080937D0181E080938F01913071F48091BF
:100570007D01813150F090918801911106C0815028
:1005800080937D0181E080938C0190918501809121
:100590007D01890F8F5F3BDF80919001813031F4C5
:1005A00061E171E054DFC1E0D0E081C080918D0154
:1005B000813009F07CC061E171E049DFC2E0D0E048
:1005C00076C080919001813009F471C060E071E0E3
:1005D00081E03DDFC3E0D0E06AC080918D018130D1
:1005E00009F465C060E071E081E031DFC4E0D0E093
:1005F0005EC085E00CDF83E021DF86E008DF82E07B
:100600001DDF87E004DF81E019DF80917C018F5FCF
:1006100080937C01883210F0C0E0D0E080E0F7DE0B
:1006200046C085E0F4DE83E009DF86E0F0DE82E0AC
:1006300005DF87E0ECDE81E001DF80917C018F5FE8
:1006400080937C01843110F0C0E0D0E080E0DFDEF8
:100650002EC0C0E0D0E02BC08130E9F088CF8130DF
:1006600009F093CF1EC080918801882309F477CFC9
:100670007ECF8130C1F37BCF90917D0148CF8091B7
:100680009301813009F04FCFF7CF909197019130CE
:1006900009F07BCF4DCF80917D01803208F067CF8C
:1006A0005ACF80917D01803208F06FCF54CFCE01B8
:1006B000DF91CF910895CF93DF93A2E2B1E022E3DF
:1006C00031E0FD0180E281932E173F07E1F71092A0
:1006D0003201E0ECF0E0C6ECD0E080818823ECF75A
:1006E00088818D932A173B07C1F78091C00088232A
:1006F00044F4A6ECB0E0E0ECF0E08C91808188233B
:10070000E4F380E084DEDF91CF910895CF93DF930F
:1007100063E371E023E431E0EB01E0ECF0E046EC70
:1007200050E0808185FFFDCF8991DA018C93C2175B
:10073000D307B9F780E2FB018193BF01E217F3070A
:10074000D1F71092430180E062DEDF91CF910895EE
:100750008230910549F134F4009751F081309105D0
:10076000B1F048C08330910561F1049799F142C01E
:1007700020919001213019F45D9A81E090E0209160
:100780008D012130C9F55B9A82E090E008952091B7
:100790009001211104C05D9880E090E008955A9B7B
:1007A0002BC083E090E0089520918D01211104C0B9
:1007B0005B9880E090E008954C9B1EC084E090E040
:1007C000089583E391E0A2DF5D981092900180E0AC
:1007D00090E0089582E291E06EDF5B9841E150E0A5
:1007E00061E070E082E291E047D110928D0180E0FB
:1007F00090E0089580E090E0089588E4FFDD80E0D7
:100800001DDE80E11BDE80E319DE80E717DE8FEF5F
:1008100015DE8FEF13DE8FEF11DE8FEF0FDE80E539
:10082000EDDD80E00BDE80E009DE80E007DE84E2C3
:1008300005DE80E003DE82E401DE84E2FFDD88E1A4
:10084000FDDD88E5DBDD80E0F9DD80E0F7DD80E0DF
:10085000F5DD82E0F3DD80E0F1DD84E0EFDD82E0D4
:10086000EDDD81E0EBCD0895CF93DF93CDB7DEB71B
:1008700028970FB6F894DEBF0FBECDBF1092960139
:1008800010929801109297011092930110929A0180
:1008900010928E0110928C0110928F01109287019C
:1008A00010929B0110928D0110929001E1ECF0E00A
:1008B000808188618083E2ECF0E0808186608083C3
:1008C00083E38093C4001092C5004CE050E061E0E7
:1008D00070E082E291E0C0D081E0809388011092C4
:1008E0007D0110928B01109295011092940110924B
:1008F00085018AEA8AB985E58BB98FEF87B918B87F
:1009000084B915B811B882B9ECE7F0E09081906431
:100910009083EAE7F0E090819168908398E0E8E4C2
:10092000F1E0DE01119601900D929A95E1F7E1E771
:10093000F1E0808348E250E060E070E04183528360
:1009400063837483458356836783708724E630E02E
:1009500032872187E6E6F1E0808344E150E060E001
:1009600070E0418352836383748345835683678336
:10097000708723E031E032872187EBE5F1E0808367
:1009800008EC10E020E030E00183128323833483FD
:1009900005831683278330872CE332E03287218753
:1009A000E0E5F1E080834183528363837483458370
:1009B00056836783708788EA93E09287818764E132
:1009C00070E080E090E096DCA6DC29DD16DF80E0B8
:1009D0001EDD7E0189E0E80EF11CDE0111966D013D
:1009E000F601019111916F01D80115964D915D911C
:1009F0006D917C91189711968D919D910D90BC9160
:100A0000A02D481759076A077B0781F4F8018081F8
:100A10000184F285E02D082E000C990B0995D80170
:100A20008C93F8011582168217821086F801858151
:100A30009681A781B0854496A11DB11D85839683BB
:100A4000A783B087CE14DF0459F6809182018823F2
:100A5000E1F310928201C1CFDC01CB01FC01F999D5
:100A6000FECF06C0F2BDE1BDF89A319600B40D92FA
:100A700041505040B8F70895DC01A40FB51F415014
:100A8000504040F0CB01840F951F2E9105D041506E
:100A90005040D8F70895262FF999FECF92BD81BD19
:100AA000F89A019700B4021639F01FBA20BD0FB6AC
:0E0AB000F894FA9AF99A0FBE0895F894FFCFC1
:100ABE00444F4E45202020202020202020202000A2
:100ACE000057414954202020202020202020202083
:100ADE000000202020202020202020202020202048
:100AEE002000002020202020202020202020202038
:100AFE002020000001000000710166015B01500121
:00000001FF
