S00F000050726F6A6563742E737265633E
S113000045C0000060C000005EC000005CC000008D
S11300105AC0000058C0000056C0000054C0000080
S113002052C0000050C000004EC000004CC0000090
S11300304AC0000088C1000046C0000044C000005F
S113004042C0000040C000003EC000003CC00000B0
S11300503AC0000038C0000036C0000034C00000C0
S113006032C0000030C000002EC000002CC00000D0
S11300702AC0000028C0000026C0000024C00000E0
S113008022C0000020C000001EC0000011241FBEBA
S1130090CFEFD0E4DEBFCDBF11E0A0E0B1E0ECE9EA
S11300A0FAE000E00BBF02C007900D92A035B10743
S11300B0D9F721E0A0E5B1E001C01D92A839B2074B
S11300C0E1F7D1D3E9C49CCFE0917D01E03108F0A0
S11300D099C08230910509F46AC034F4009779F02C
S11300E0019709F45AC081C08430910509F46FC0A6
S11300F00CF464C08530910509F470C076C020B159
S1130100207F203749F480918B01880F8160809390
S11301108B0181E090E06BC020B1207F203B41F453
S113012080918B01880F80938B0182E090E05FC007
S113013020B1207F203DA9F480918B01811106C05C
S1130140AE2FB0E0AD5CBE4F80E28C9310928B0179
S1130150EB3008F055C0EF5FE0937D0183E090E061
S1130160089520B1207F203E51F481E090918D01CB
S1130170911180E080938D0184E090E038C020B13B
S1130180287F203FA1F581E090918C01911180E0BE
S113019080938C0185E090E02AC080B1807F31E0BB
S11301A020E0803709F030E0832F922F20C020B167
S11301B0207F203BE1F080E090E019C020B1207F57
S11301C0203DA9F010928B0180E090E0089520B1C9
S11301D0207F203E61F080E090E009C020B1287FBC
S11301E0203F29F080E090E002C080E090E0209180
S11301F08B01222339F0F0E0ED5CFE4F208308955B
S113020083E090E00895BC0190917C00903419F053
S11302109134B9F02BC0EAE7F0E0808180648083F8
S1130220908194FFFDCFE8E7F0E080819181909385
S11302308F0180938E011182108281E480937C006F
S113024015C0EAE7F0E0808180648083908194FFA8
S1130250FDCFE8E7F0E08081918190938401809361
S113026083011182108280E480937C0020918E01AE
S113027030918F01253383E038071CF081E08093AF
S113028090012C3281E038071CF481E080939401C2
S11302904091830150918401453383E058071CF059
S11302A081E0809393014C3281E058071CF481E093
S11302B080939501445A5140493C510520F41092D1
S11302C0930110929501245A3140293C310520F4C0
S11302D01092940110929001CB010895609344010F
S11302E070934501809346019093470160937E018A
S11302F070937F01809380019093810108958BE036
S1130300809381008DE790E090938900809388002A
S113031082E080936F001092850010928400809197
S1130320440190914501A0914601B0914701809309
S11303307E0190937F01A0938001B09381018FB7D8
S113034080688FBF08951F920F920FB60F921124E9
S11303508F939F93AF93BF9380917E0190917F0180
S1130360A0918001B09181010197A109B109809305
S11303707E0190937F01A0938001B0938101892B2A
S11303808A2B8B2B99F481E0809382018091440124
S113039090914501A0914601B091470180937E015F
S11303A090937F01A0938001B0938101BF91AF919D
S11303B09F918F910F900FBE0F901F901895181654
S11303C019065CF00895000021503109E1F74F5FF0
S11303D05F4F8417950719F4089540E050E027E033
S11303E033E0F1CF2E9888B92F9A00002F9882E03D
S11303F090E0E5CF0895813118F48158F3CF089542
S11304008155F0CF089584E690E0D9DF88E3EADFF0
S113041086E0E8DF8FE0E6DF81E0E4DF8AE090E079
S1130420CECF08952E9A88B92F9A00002F9881E094
S113043090E0C5CF08951F93CF93DF93FB01908184
S1130440992351F0EB0111E0180FD5DF8991EADF10
S1130450812F98819111F7CFDF91CF911F9108954A
S1130460CF93DF93EC018230910509F4AFC034F4EB
S1130470009761F0019709F49DC0E4C083309105B1
S113048009F4B0C0049709F4C5C0DCC063E371E0AB
S113049081E0D1DF62E271E081E1CDDF80919301FF
S11304A0813089F48091880181110DC010928B01F3
S11304B010927D0181E080938801809195018130C3
S11304C009F0DCC008C080919501813059F4809115
S11304D08801813039F410928B0180E180937D0191
S11304E01092880180919001813009F0CDC08091F3
S11304F07D018B3008F0CEC090918801913009F0D5
S1130500C9C010928B018F5F80937D01109290017E
S1130510BBC080919401813009F09CC080917D0121
S1130520882309F4A3C090918801913009F08DC00B
S113053010928B01815080937D01109294018AC0A6
S113054080917D01803248F490918801911105C019
S11305508F5F80937D01109290018091940181308E
S113056069F480917D01813148F090918801911165
S113057005C0815080937D01109294019091850172
S113058080917D01890F8F5F36DF80918D018130ED
S113059031F461E171E04FDFC1E0D0E087C08091C8
S11305A08C01813009F082C061E171E044DFC2E076
S11305B0D0E07CC080918D01813009F477C060E087
S11305C071E081E038DFC3E0D0E070C080918C013D
S11305D0813009F46BC060E071E081E02CDFC4E09D
S11305E0D0E064C085E007DF83E01CDF86E003DF42
S11305F082E018DF87E0FFDE81E014DF80917C0178
S11306008F5F80937C01883210F0C0E0D0E080E0FE
S1130610F2DE4CC085E0EFDE83E004DF86E0EBDE53
S113062082E000DF87E0E7DE81E0FCDE80917C0190
S11306308F5F80937C01843110F0C0E0D0E080E0D3
S1130640DADE34C0C0E0D0E031C080919001813066
S113065039F187CF80919001813009F08FCF70CF2D
S113066080918801882309F473CF7BCF8091900116
S11306708130B1F376CF80917D013ECF809190019E
S1130680813009F046CFF7CF80919401813009F091
S113069075CF44CF80919401813009F43FCF50CF7E
S11306A080917D01803208F05CCF4ECFCE01DF9186
S11306B0CF910895CF93DF93A2E2B1E022E331E03A
S11306C0FD0180E281932E173F07E1F7109232017A
S11306D0E0ECF0E0C6ECD0E080818823ECF7888180
S11306E08D932A173B07C1F78091C000882344F4F7
S11306F0A6ECB0E0E0ECF0E08C9180818823E4F398
S113070080E079DEDF91CF910895CF93DF9363E3A7
S113071071E023E431E0EB01E0ECF0E046EC50E082
S1130720808185FFFDCF8991DA018C93C217D307AD
S1130730B9F780E2FB018193BF01E217F307D1F718
S11307401092430180E057DEDF91CF91089582300B
S1130750910549F134F4009751F081309105B1F0DD
S113076048C08330910561F1049799F142C020910A
S11307708D01213019F45D9A81E090E020918C0183
S11307802130C9F55B9A82E090E0089520918D01B3
S1130790211104C05D9880E090E008955A9B2BC01D
S11307A083E090E0089520918C01211104C05B98AE
S11307B080E090E008954C9B1EC084E090E0089592
S11307C083E391E0A2DF5D9810928D0180E090E0D8
S11307D0089582E291E06EDF5B9841E150E061E0D0
S11307E070E082E291E037D110928C0180E090E0D9
S11307F0089580E090E0089588E4F4DD80E012DE5E
S113080080E110DE80E30EDE80E70CDE8FEF0ADE8F
S11308108FEF08DE8FEF06DE8FEF04DE80E5E2DD8A
S113082080E000DE80E0FEDD80E0FCDD84E2FADDD5
S113083080E0F8DD82E4F6DD84E2F4DD88E1F2DDD7
S113084088E5D0DD80E0EEDD80E0ECDD80E0EADD0F
S113085082E0E8DD80E0E6DD84E0E4DD82E0E2DD04
S113086081E0E0CD0895CF93DF93CDB7DEB728972D
S11308700FB6F894DEBF0FBECDBF10928701109261
S1130880970110928C0110928D01E1ECF0E08081CF
S113089088618083E2ECF0E080818660808383E37A
S11308A08093C4001092C5004CE050E061E070E019
S11308B082E291E0C0D081E08093880110927D01B2
S11308C010928B0110929201109291011092850165
S11308D08AEA8AB985E58BB98FEF87B918B884B9E4
S11308E015B811B882B9ECE7F0E090819064908378
S11308F0EAE7F0E090819168908398E0E8E4F1E021
S1130900DE01119601900D929A95E1F7E1E7F1E08D
S1130910808348E250E060E070E041835283638367
S11309207483458356836783708724E630E0328777
S11309302187E6E6F1E0808344E150E060E070E086
S113094041835283638374834583568367837087AB
S113095023E031E032872187EBE5F1E0808308EC86
S113096010E020E030E00183128323833483058385
S113097016832783308720E332E032872187E0E53E
S1130980F1E0808341835283638374834583568378
S11309906783708787EA93E09287818764E170E0D8
S11309A080E090E09BDCABDC2EDD26DF80E023DD05
S11309B07E0189E0E80EF11CDE0111966D01F6015D
S11309C0019111916F01D80115964D915D916D9131
S11309D07C91189711968D919D910D90BC91A02DAD
S11309E0481759076A077B0781F4F801808101845D
S11309F0F285E02D082E000C990B0995D8018C93F3
S1130A00F8011582168217821086F8018581968175
S1130A10A781B0854496A11DB11D85839683A783C4
S1130A20B087CE14DF0459F6809182018823E1F364
S1130A3010928201C1CFDC01CB01FC01F999FECFF8
S1130A4006C0F2BDE1BDF89A319600B40D92415052
S1130A505040B8F70895DC01A40FB51F4150504031
S1130A6040F0CB01840F951F2E9105D0415050408A
S1130A70D8F70895262FF999FECF92BD81BDF89A33
S1130A80019700B4021639F01FBA20BD0FB6F894CE
S10F0A90FA9AF99A0FBE0895F894FFCF6B
S1130A9C444F4E45202020202020202020202000C0
S1130AAC00574149542020202020202020202020A1
S1130ABC0000202020202020202020202020202066
S1130ACC2000002020202020202020202020202056
S1130ADC2020000001000000710166015B0150013F
S9030000FC
