S00F000050726F6A6563742E737265633E
S113000045C0000060C000005EC000005CC000008D
S11300105AC0000058C0000056C0000054C0000080
S113002052C0000050C000004EC000004CC0000090
S11300304AC000004FC1000046C0000044C0000098
S113004042C0000040C000003EC000003CC00000B0
S11300503AC0000038C0000036C0000034C00000C0
S113006032C0000030C000002EC000002CC00000D0
S11300702AC0000028C0000026C0000024C00000E0
S113008022C0000020C000001EC0000011241FBEBA
S1130090CFEFD0E4DEBFCDBF11E0A0E0B1E0E6EAEF
S11300A0F6E000E00BBF02C007900D92A832B10742
S11300B0D9F721E0A8E2B1E001C01D92A23AB2074B
S11300C0E1F73ED2EEC29CCF20914901203108F0E5
S11300D060C081309105C9F11CF4009749F04FC00C
S11300E082309105E1F18330910509F43FC047C0A6
S11300F030B1307F303749F480917701880F8160C7
S11301008093770181E090E03CC030B1307F303B98
S113011041F480917701880F8093770182E090E029
S113012030C030B1307F303D61F58091770181116D
S113013006C0E22FF0E0E45FFE4F80E280832F5F91
S11301402093490183E090E01CC080B1807F31E0BE
S113015020E0803709F030E0832F922F12C020B1C5
S1130160207F203B71F080E090E00BC020B1207F25
S1130170203D39F01092770180E090E002C080E0E9
S113018090E0E0914901F0E0E45FFE4F20917701B7
S113019020830895BC0190917C00903419F091342F
S11301A0B9F02BC0EAE7F0E080818064808390811D
S11301B094FFFDCFE8E7F0E08081918190939A016C
S11301C0809399011182108281E480937C0015C090
S11301D0EAE7F0E0808180648083908194FFFDCF22
S11301E0E8E7F0E080819181909371018093700140
S11301F01182108280E480937C00209199013091D7
S11302009A01253383E038071CF081E080939B0139
S11302102C3281E038071CF481E080939F014091E7
S1130220700150917101453383E058071CF081E05F
S113023080939E014C3281E058071CF481E0809346
S1130240A001445A5140493C510520F410929E01AA
S11302501092A001245A3140293C310520F4109217
S11302609F0110929B01CB01089560931D0170932F
S11302701E0180931F019093200160934A017093A3
S11302804B0180934C0190934D0108958BE0809332
S113029081008DE790E0909389008093880082E04C
S11302A080936F00109285001092840080911D014C
S11302B090911E01A0911F01B091200180934A01E9
S11302C090934B01A0934C01B0934D018FB780687C
S11302D08FBF08951F920F920FB60F9211248F9320
S11302E09F93AF93BF9380914A0190914B01A0914A
S11302F04C01B0914D010197A109B10980934A01C4
S113030090934B01A0934C01B0934D01892B8A2B00
S11303108B2B99F481E080934E0180911D01909183
S11303201E01A0911F01B091200180934A01909376
S11303304B01A0934C01B0934D01BF91AF919F919C
S11303408F910F900FBE0F901F90189518161906D5
S11303505CF00895000021503109E1F74F5F5F4FD1
S11303608417950719F4089540E050E027E033E03E
S1130370F1CF2E9888B92F9A00002F9882E090E050
S1130380E5CF0895813118F48158F3CF089581554C
S1130390F0CF089584E690E0D9DF88E3EADF86E0D1
S11303A0E8DF8FE0E6DF81E0E4DF8AE090E0CECFB3
S11303B008952E9A88B92F9A00002F9881E090E032
S11303C0C5CF08951F93CF93DF93FB0190819923A9
S11303D051F0EB0111E0180FD5DF8991EADF812F8D
S11303E098819111F7CFDF91CF911F910895CF9309
S11303F0DF93EC016CE071E081E0E4DF60E071E048
S113040081E1E0DF80919E01813079F48091740173
S113041081110BC01092490181E080937401809195
S1130420A001813009F06BC008C08091A001813027
S113043049F480917401813029F480E18093490169
S11304401092740180919B01813009F05EC080910B
S113045049018F3008F05EC090917401913009F029
S113046059C08F5F8093490110929B014EC08091C7
S11304709F01813091F5809149018823C1F19091C8
S11304807401913029F581508093490110929F01A4
S113049024C080914901803248F4909174019111F3
S11304A005C08F5F8093490110929B0180919F0149
S11304B08130D9F5809149018131B8F1909174016D
S11304C0911133C081508093490110929F012DC036
S11304D080919B01813071F723C080919B01813011
S11304E021F5D7CF809174018823D9F2E3CF80918D
S11304F09B018130B9F3DECF80914901ADCF80916A
S11305009B01813009F0B3CFF7CF80919F018130F7
S113051061F4B1CF80919F01813009F0BACFABCFA4
S113052080914901803230F6B8CF90917201809168
S11305304901890F8F5F26DFCE01DF91CF910895A6
S1130540CF93DF9300D000D000D0CDB7DEB781E0E9
S113055080937401109249011092770110929D01C9
S113056010929C01109272018FEF8AB91BB887B95F
S113057018B884B915B811B882B9ECE7F0E09081E5
S113058090649083EAE7F0E090819168908396E02C
S1130590E1E2F1E0DE01119601900D929A95E1F706
S11305A0EEE3F1E0808344E150E060E070E04183F9
S11305B052836383748345835683678370872AECED
S11305C030E032872187E3E3F1E080834183528383
S11305D063837483458356836783708724E630E09E
S11305E032872187E8E2F1E0808384E690E0A0E0AE
S11305F0B0E081839283A383B48385839683A783A6
S1130600B08787EF91E09287818764E170E080E0B2
S113061090E02BDE3BDEBEDE80E0B4DE7E0187E0D0
S1130620E80EF11CDE0111966D01F60101911191A4
S11306306F01D80115964D915D916D917C9118973C
S113064011968D919D910D90BC91A02D481759073D
S11306506A077B0781F4F80180810184F285E02D2B
S1130660082E000C990B0995D8018C93F80115827A
S1130670168217821086F80185819681A781B0853C
S11306804496A11DB11D85839683A783B087CE149C
S1130690DF0459F680914E018823E1F310924E0154
S10906A0C1CFF894FFCF66
S11306A648454C4C4F20574F524C440020202020A4
S11306B620202020202020202020200000010000CF
S10B06C6003E0133012801008C
S9030000FC
