S00F000050726F6A6563742E737265633E
S113000045C0000060C000005EC000005CC000008D
S11300105AC0000058C0000056C0000054C0000080
S113002052C0000050C000004EC000004CC0000090
S11300304AC0000082C1000046C0000044C0000065
S113004042C0000040C000003EC000003CC00000B0
S11300503AC0000038C0000036C0000034C00000C0
S113006032C0000030C000002EC000002CC00000D0
S11300702AC0000028C0000026C0000024C00000E0
S113008022C0000020C000001EC0000011241FBEBA
S1130090CFEFD0E4DEBFCDBF11E0A0E0B1E0E2E0FD
S11300A0FAE000E00BBF02C007900D92A034B10744
S11300B0D9F721E0A0E4B1E001C01D92A838B2074D
S11300C0E1F784D39CC49CCFE0916D01E03108F04A
S11300D093C08230910509F467C034F4009779F035
S11300E0019709F457C07EC08430910509F46CC0AF
S11300F00CF461C08530910509F46DC073C020B162
S1130100207F203749F480917B01880F81608093A0
S11301107B0181E090E068C020B1207F203B41F466
S113012080917B01880F80937B0182E090E05CC02A
S113013020B1207F203D91F480917B01811106C084
S1130140AE2FB0E0AE5DBE4F80E28C9310927B0187
S1130150EF5FE0936D0183E090E0089520B1207F8C
S1130160203E51F481E090917D01911180E08093D3
S11301707D0184E090E038C020B1287F203FA1F5C4
S113018081E090917C01911180E080937C0185E075
S113019090E02AC080B1807F31E020E0803709F010
S11301A030E0832F922F20C020B1207F203BE1F04C
S11301B080E090E019C020B1207F203DA9F010928A
S11301C07B0180E090E0089520B1207F203E61F023
S11301D080E090E009C020B1287F203F29F080E032
S11301E090E002C080E090E020917B01222321F086
S11301F0F0E0EE5DFE4F20830895BC0190917C00F9
S1130200903419F09134B9F02BC0EAE7F0E0808122
S113021080648083908194FFFDCFE8E7F0E08081E3
S1130220918190937F0180937E011182108281E4F9
S113023080937C0015C0EAE7F0E0808180648083CD
S1130240908194FFFDCFE8E7F0E080819181909365
S11302507401809373011182108280E480937C0086
S113026020917E0130917F01253383E038071CF013
S113027081E0809380012C3281E038071CF481E016
S1130280809384014091730150917401453383E05C
S113029058071CF081E0809383014C3281E05807B9
S11302A01CF481E080938501445A5140493C510536
S11302B020F41092830110928501245A3140293C84
S11302C0310520F41092840110928001CB0108952D
S11302D06093330170933401809335019093360118
S11302E060936E0170936F0180937001909371011C
S11302F008958BE0809381008DE790E090938900CE
S11303008093880082E080936F00109285001092A1
S113031084008091330190913401A0913501B09112
S1130320360180936E0190936F01A0937001B09396
S113033071018FB780688FBF08951F920F920FB617
S11303400F9211248F939F93AF93BF9380916E016B
S113035090916F01A0917001B09171010197A10971
S1130360B10980936E0190936F01A0937001B093D3
S11303707101892B8A2B8B2B99F481E08093720174
S11303808091330190913401A0913501B0913601EF
S113039080936E0190936F01A0937001B0937101EB
S11303A0BF91AF919F918F910F900FBE0F901F90AF
S11303B01895181619065CF00895000021503109AB
S11303C0E1F74F5F5F4F8417950719F4089540E0F4
S11303D050E027E033E0F1CF2E9888B92F9A00003F
S11303E02F9882E090E0E5CF0895813118F4815888
S11303F0F3CF08958155F0CF089584E690E0D9DFD6
S113040088E3EADF86E0E8DF8FE0E6DF81E0E4DF2F
S11304108AE090E0CECF08952E9A88B92F9A0000F2
S11304202F9881E090E0C5CF08951F93CF93DF9379
S1130430FB019081992351F0EB0111E0180FD5DFF6
S11304408991EADF812F98819111F7CFDF91CF91C4
S11304501F910895CF93DF93EC018230910509F445
S1130460A5C034F4009761F0019709F493C0C7C0A4
S11304708330910509F4A6C0049709F4B2C0BFC043
S113048062E271E081E0D1DF61E171E081E1CDDF21
S113049080918301813089F48091780181110DC0AC
S11304A010927B0110926D0181E08093780180911C
S11304B08501813009F0C5C008C080918501813073
S11304C059F480917801813039F410927B0180E1F4
S11304D080936D011092780180918001813009F040
S11304E0B6C080916D018F3008F0B7C0909178014B
S11304F0913009F0B2C010927B018F5F80936D013F
S113050010928001A4C080918401813009F085C0DB
S113051080916D01882309F48CC090917801913009
S113052009F076C010927B01815080936D01109286
S1130530840173C080916D01803248F490917801F8
S1130540911105C08F5F80936D011092800180919D
S11305508401813069F480916D01813148F090917A
S11305607801911105C0815080936D01109284012E
S11305709091750180916D01890F8F5F36DF8091B5
S11305807D01813009F43EC080917C01813009F005
S113059070C03BC060E071E081E047DF80917D0185
S11305A0813009F466C0C3E0D0E063C060E071E06C
S11305B081E13BDF80917C01813009F45AC0C3E0C2
S11305C0D0E057C085E011DF81E026DF80916C0127
S11305D08F5F80936C01823008F44BC0C0E0D0E0A0
S11305E048C085E002DF81E017DF80916C018F5FF6
S11305F080936C018230E8F1C0E0D0E03AC0C0E002
S1130600D0E037C0C1E0D0E034C0C2E0D0E031C0B7
S113061080918001813039F19ECF809180018130B9
S113062009F0A6CF87CF80917801882309F48ACF77
S113063092CF809180018130B1F38DCF80916D0193
S113064055CF80918001813009F05DCFF7CF809143
S11306508401813009F08CCF5BCF8091840181309B
S113066009F456CF67CF80916D01803208F073CFC3
S113067065CFCE01DF91CF910895CF93DF93E1E170
S1130680F1E041E251E020E22193E417F507E1F7BC
S113069010922101DC019C01205F3F4FE0ECF0E06F
S11306A0C6ECD0E090819923ECF798819D93A21732
S11306B0B307C1F7DF91CF910895CF93DF93DC01A6
S11306C09C01205F3F4FE0ECF0E0C6ECD0E090816D
S11306D095FFFDCF8D918883A217B307C1F7E2E29E
S11306E0F1E022E331E080E28193E217F307E1F7DE
S11306F010923201DF91CF9108958230910549F132
S113070034F4009751F081309105B1F049C0833041
S1130710910569F10497A1F143C020917D01213035
S113072019F45D9A81E090E020917C012130D1F5AB
S11307305B9A82E090E0089520917D01211104C02C
S11307405D9880E090E008955A9B2CC083E090E08F
S1130750089520917C01211104C05B9880E090E011
S113076008954C9B1FC05B9A84E090E0089582E258
S113077091E0A3DF5D9810927D0180E090E0089500
S113078081E191E07ADF5B9841E150E061E070E063
S113079081E191E013D110927C0180E090E0089512
S11307A080E090E0089588E417DE80E035DE80E1A3
S11307B033DE80E331DE80E72FDE8FEF2DDE8FEF37
S11307C02BDE8FEF29DE8FEF27CE0895CF93DF93B3
S11307D0CDB7DEB728970FB6F894DEBF0FBECDBFF6
S11307E0109277011092870110927C0110927D0182
S11307F0E1ECF0E0808188618083E2ECF0E08081CC
S11308008660808383E38093C4001092C5004CE02B
S113081050E061E070E081E191E0C0D081E080933C
S1130820780110926D0110927B0110928201109256
S11308308101109275018AEA8AB985E58BB98FEF37
S113084087B918B884B915B811B882B9ECE7F0E0E3
S1130850908190649083EAE7F0E0908191689083BE
S113086098E0E7E3F1E0DE01119601900D929A958C
S1130870E1F7E1E6F1E0808348E250E060E070E017
S1130880418352836383748345835683678370876C
S113089024E630E032872187E6E5F1E0808344E115
S11308A050E060E070E04183528363837483458346
S11308B05683678370872DEF30E032872187EBE41E
S11308C0F1E0808308EC10E020E030E00183128343
S11308D02383348305831683278330872AE232E017
S11308E032872187E0E4F1E080834183528363838C
S11308F0748345835683678370878DE793E092877B
S1130900818764E170E080E090E0E2DCF2DC75DD98
S11309104ADF80E06ADD7E0189E0E80EF11CDE0139
S113092011966D01F601019111916F01D80115968F
S11309304D915D916D917C91189711968D919D913A
S11309400D90BC91A02D481759076A077B0781F4C5
S1130950F80180810184F285E02D082E000C990BAA
S11309600995D8018C93F801158216821782108696
S1130970F80185819681A781B0854496A11DB11D9A
S113098085839683A783B087CE14DF0459F68091BC
S113099072018823E1F310927201C1CFDC01CB0113
S11309A0FC01F999FECF06C0F2BDE1BDF89A31967B
S11309B000B40D9241505040B8F70895DC01A40FE3
S11309C0B51F4150504040F0CB01840F951F2E912C
S11309D005D041505040D8F70895262FF999FECFFD
S11309E092BD81BDF89A019700B4021639F01FBA7E
S11309F020BD0FB6F894FA9AF99A0FBE0895F894A8
S1050A00FFCF22
S1130A02574149542020202020202020202020004B
S1130A1200202020202020202020202020202020F0
S1130A220000202020202020202020202020202000
S1130A3220000001000000610156014B0140010049
S9030000FC
