S00F000050726F6A6563742E737265633E
S113000045C0000060C000005EC000005CC000008D
S11300105AC0000058C0000056C0000054C0000080
S113002052C0000050C000004EC000004CC0000090
S11300304AC0000050C1000046C0000044C0000097
S113004042C0000040C000003EC000003CC00000B0
S11300503AC0000038C0000036C0000034C00000C0
S113006032C0000030C000002EC000002CC00000D0
S11300702AC0000028C0000026C0000024C00000E0
S113008022C0000020C000001EC0000011241FBEBA
S1130090CFEFD0E4DEBFCDBF11E0A0E0B1E0E0EBF4
S11300A0F5E000E00BBF02C007900D92A832B10743
S11300B0D9F721E0A8E2B1E001C01D92AF37B20741
S11300C0E1F7C6D173C29CCF81309105E9F11CF4EC
S11300D0009751F053C08230910509F43FC083303A
S11300E0910509F442C04AC020B1207F203749F469
S11300F080916501880F81608093650181E090E0C3
S11301003FC020B1207F203B41F480916501880FDE
S11301108093650182E090E033C020B1207F203DD0
S113012079F580916501811107C0E0916201F0E0E9
S1130130E45FFE4F80E28083809162018F5F809351
S1130140620183E090E01CC080B1807F31E020E058
S1130150803709F030E0832F922F12C020B1207F26
S1130160203B71F080E090E00BC020B1207F203D67
S113017039F01092650180E090E002C080E090E0E8
S1130180E0916201F0E0E45FFE4F2091650120837D
S11301900895BC0190917C00903419F09134B9F029
S11301A02BC0EAE7F0E0808180648083908194FF33
S11301B0FDCFE8E7F0E0808191819093780180930E
S11301C077011182108281E480937C0015C0EAE7F4
S11301D0F0E0808180648083908194FFFDCFE8E724
S11301E0F0E080819181909361018093600111829C
S11301F0108280E480937C004091770150917801D3
S1130200453383E058071CF081E0809379014C3238
S113021081E058071CF481E080937D012091600106
S1130220309161012D3F83E038071CF081E0809319
S11302307C012C3281E038071CF481E080937E013C
S1130240245A3140293C310520F410927C0110924B
S11302507E01CA01845A9140893C910520F4109290
S11302607D01109279014BB9CB01089560931D0172
S113027070931E0180931F019093200160934A01A3
S113028070934B0180934C0190934D0108958BE042
S1130290809381008DE790E090938900809388009B
S11302A082E080936F001092850010928400809108
S11302B01D0190911E01A0911F01B0912001809316
S11302C04A0190934B01A0934C01B0934D018FB719
S11302D080688FBF08951F920F920FB60F9211245A
S11302E08F939F93AF93BF9380914A0190914B0159
S11302F0A0914C01B0914D010197A109B1098093DE
S11303004A0190934B01A0934C01B0934D01892B6A
S11303108A2B8B2B99F481E080934E0180911D01EF
S113032090911E01A0911F01B091200180934A0178
S113033090934B01A0934C01B0934D01BF91AF91A9
S11303409F918F910F900FBE0F901F9018951816C4
S113035019065CF00895000021503109E1F74F5F60
S11303605F4F8417950719F4089540E050E027E0A3
S113037033E0F1CF2E9888B92F9A00002F9882E0AD
S113038090E0E5CF0895813118F48158F3CF0895B2
S11303908155F0CF089584E690E0D9DF88E3EADF61
S11303A086E0E8DF8FE0E6DF81E0E4DF8AE090E0EA
S11303B0CECF08952E9A88B92F9A00002F9881E005
S11303C090E0C5CF08951F93CF93DF93FB019081F5
S11303D0992351F0EB0111E0180FD5DF8991EADF81
S11303E0812F98819111F7CFDF91CF911F910895BB
S11303F0CF93DF93EC016CE071E081E0E4DF60E037
S113040071E081E1E0DF80917901813049F48091EC
S113041049018F3028F48F5F80934901109279014C
S113042080917D01813049F480914901823028F026
S113043081508093490110927D01909162018091D5
S11304404901890F8F5F9FDFCE01DF91CF9108951E
S1130450CF93DF9300D000D000D0CDB7DEB7109299
S1130460650110927B0110927A01109262018FEF64
S11304708AB91BB887B918B884B915B811B882B944
S1130480ECE7F0E0908190649083EAE7F0E09081FB
S11304909168908396E0E1E2F1E0DE01119601902B
S11304A00D929A95E1F7EEE3F1E0808344E650E0A3
S11304B060E070E041835283638374834583568391
S11304C06783708729EC30E032872187E3E3F1E02A
S11304D0808348E250E060E070E0418352836383AC
S11304E07483458356836783708724E630E03287BC
S11304F02187E8E2F1E0808388EC90E0A0E0B0E0BE
S113050081839283A383B48385839683A783B087EF
S113051088EF91E09287818764E170E080E090E069
S1130520A5DEB5DE38DF7E0187E0E80EF11CDE01D2
S113053011966D01F601019111916F01D801159683
S11305404D915D916D917C91189711968D919D912E
S11305500D90BC91A02D481759076A077B0781F4B9
S1130560F80180810184F285E02D082E000C990B9E
S11305700995D8018C93F80115821682178210868A
S1130580F80185819681A781B0854496A11DB11D8E
S113059085839683A783B087CE14DF0459F68091B0
S11305A04E018823E1F310924E01C1CFF894FFCF9E
S11305B048454C4C4F20574F524C4400202020209B
S11305C020202020202020202020200000010000C6
S10B05D0003E01330128010083
S9030000FC
